{
  "transactions": [
    {
      "hash": "0x4e345379ec978a749b0fb42414f77787af51cdb2f2df006577f09053b5b2a96c",
      "transactionType": "CREATE",
      "contractName": "Create2",
      "contractAddress": "0xCfF9899Aa0ffBEBf6f3CdE0A6dEb8a3B644Ff9e8",
      "function": null,
      "arguments": null,
      "transaction": {
        "type": "0x02",
        "from": "0x439356ad40d2f2961c99ffed4453f482aec453af",
        "gas": "0x3aecc",
        "value": "0x0",
        "data": "0x608060405234801561001057600080fd5b50610265806100206000396000f3fe6080604052600436106100295760003560e01c8063481286e61461002e57806366cfa0571461006a575b600080fd5b34801561003a57600080fd5b5061004e610049366004610133565b61007d565b6040516001600160a01b03909116815260200160405180910390f35b61004e61007836600461016b565b6100a8565b604080519081018290526020810183905230808252600091600b0160ff815360559020949350505050565b6000833410156100d85760405163392efb2b60e21b81523460048201526024810185905260440160405180910390fd5b81516000036100fa57604051631328927760e21b815260040160405180910390fd5b8282516020840186f590506001600160a01b03811661012c57604051633a0ba96160e11b815260040160405180910390fd5b9392505050565b6000806040838503121561014657600080fd5b50508035926020909101359150565b634e487b7160e01b600052604160045260246000fd5b60008060006060848603121561018057600080fd5b8335925060208401359150604084013567ffffffffffffffff808211156101a657600080fd5b818601915086601f8301126101ba57600080fd5b8135818111156101cc576101cc610155565b604051601f8201601f19908116603f011681019083821181831017156101f4576101f4610155565b8160405282815289602084870101111561020d57600080fd5b826020860160208301376000602084830101528095505050505050925092509256fea26469706673582212201ff959459b89756a6c78590a6dfd8b3bd2f3527669a3ed636352c12affb3392164736f6c63430008140033",
        "nonce": "0xd6",
        "accessList": []
      },
      "additionalContracts": [],
      "isFixedGasLimit": false
    },
    {
      "hash": "0xdec26b9aee8780af43d9ec8514efaeb17208163be31bdd456172839979962016",
      "transactionType": "CALL",
      "contractName": "Create2",
      "contractAddress": "0xCfF9899Aa0ffBEBf6f3CdE0A6dEb8a3B644Ff9e8",
      "function": "deploy(uint256,bytes32,bytes):(address)",
      "arguments": [
        "0",
        "0x3132333435000000000000000000000000000000000000000000000000000000",
        "0x608060405234801561001057600080fd5b50610265806100206000396000f3fe6080604052600436106100295760003560e01c8063481286e61461002e57806366cfa0571461006a575b600080fd5b34801561003a57600080fd5b5061004e610049366004610133565b61007d565b6040516001600160a01b03909116815260200160405180910390f35b61004e61007836600461016b565b6100a8565b604080519081018290526020810183905230808252600091600b0160ff815360559020949350505050565b6000833410156100d85760405163392efb2b60e21b81523460048201526024810185905260440160405180910390fd5b81516000036100fa57604051631328927760e21b815260040160405180910390fd5b8282516020840186f590506001600160a01b03811661012c57604051633a0ba96160e11b815260040160405180910390fd5b9392505050565b6000806040838503121561014657600080fd5b50508035926020909101359150565b634e487b7160e01b600052604160045260246000fd5b60008060006060848603121561018057600080fd5b8335925060208401359150604084013567ffffffffffffffff808211156101a657600080fd5b818601915086601f8301126101ba57600080fd5b8135818111156101cc576101cc610155565b604051601f8201601f19908116603f011681019083821181831017156101f4576101f4610155565b8160405282815289602084870101111561020d57600080fd5b826020860160208301376000602084830101528095505050505050925092509256fea26469706673582212201ff959459b89756a6c78590a6dfd8b3bd2f3527669a3ed636352c12affb3392164736f6c63430008140033"
      ],
      "transaction": {
        "type": "0x02",
        "from": "0x439356ad40d2f2961c99ffed4453f482aec453af",
        "to": "0xcff9899aa0ffbebf6f3cde0a6deb8a3b644ff9e8",
        "gas": "0x3f355",
        "value": "0x0",
        "data": "0x66cfa0570000000000000000000000000000000000000000000000000000000000000000313233343500000000000000000000000000000000000000000000000000000000000000000000000000000000000000000000000000000000000000000000600000000000000000000000000000000000000000000000000000000000000285608060405234801561001057600080fd5b50610265806100206000396000f3fe6080604052600436106100295760003560e01c8063481286e61461002e57806366cfa0571461006a575b600080fd5b34801561003a57600080fd5b5061004e610049366004610133565b61007d565b6040516001600160a01b03909116815260200160405180910390f35b61004e61007836600461016b565b6100a8565b604080519081018290526020810183905230808252600091600b0160ff815360559020949350505050565b6000833410156100d85760405163392efb2b60e21b81523460048201526024810185905260440160405180910390fd5b81516000036100fa57604051631328927760e21b815260040160405180910390fd5b8282516020840186f590506001600160a01b03811661012c57604051633a0ba96160e11b815260040160405180910390fd5b9392505050565b6000806040838503121561014657600080fd5b50508035926020909101359150565b634e487b7160e01b600052604160045260246000fd5b60008060006060848603121561018057600080fd5b8335925060208401359150604084013567ffffffffffffffff808211156101a657600080fd5b818601915086601f8301126101ba57600080fd5b8135818111156101cc576101cc610155565b604051601f8201601f19908116603f011681019083821181831017156101f4576101f4610155565b8160405282815289602084870101111561020d57600080fd5b826020860160208301376000602084830101528095505050505050925092509256fea26469706673582212201ff959459b89756a6c78590a6dfd8b3bd2f3527669a3ed636352c12affb3392164736f6c63430008140033000000000000000000000000000000000000000000000000000000",
        "nonce": "0xd7",
        "accessList": []
      },
      "additionalContracts": [
        {
          "transactionType": "CREATE2",
          "address": "0x1789F1400eC2C09BE4b89a72b3B83d384138A45B",
          "initCode": "0x608060405234801561001057600080fd5b50610265806100206000396000f3fe6080604052600436106100295760003560e01c8063481286e61461002e57806366cfa0571461006a575b600080fd5b34801561003a57600080fd5b5061004e610049366004610133565b61007d565b6040516001600160a01b03909116815260200160405180910390f35b61004e61007836600461016b565b6100a8565b604080519081018290526020810183905230808252600091600b0160ff815360559020949350505050565b6000833410156100d85760405163392efb2b60e21b81523460048201526024810185905260440160405180910390fd5b81516000036100fa57604051631328927760e21b815260040160405180910390fd5b8282516020840186f590506001600160a01b03811661012c57604051633a0ba96160e11b815260040160405180910390fd5b9392505050565b6000806040838503121561014657600080fd5b50508035926020909101359150565b634e487b7160e01b600052604160045260246000fd5b60008060006060848603121561018057600080fd5b8335925060208401359150604084013567ffffffffffffffff808211156101a657600080fd5b818601915086601f8301126101ba57600080fd5b8135818111156101cc576101cc610155565b604051601f8201601f19908116603f011681019083821181831017156101f4576101f4610155565b8160405282815289602084870101111561020d57600080fd5b826020860160208301376000602084830101528095505050505050925092509256fea26469706673582212201ff959459b89756a6c78590a6dfd8b3bd2f3527669a3ed636352c12affb3392164736f6c63430008140033"
        }
      ],
      "isFixedGasLimit": false
    }
  ],
  "receipts": [
    {
      "transactionHash": "0x4e345379ec978a749b0fb42414f77787af51cdb2f2df006577f09053b5b2a96c",
      "transactionIndex": "0x6",
      "blockHash": "0x6236718c668c8dcc4580bd4cee6b96ab29262acfb40fa8fce6a6d186ee941264",
      "blockNumber": "0x2731343",
      "from": "0x439356Ad40D2f2961c99FFED4453f482AEC453Af",
      "to": null,
      "cumulativeGasUsed": "0x13b3a3",
      "gasUsed": "0x2d53b",
      "contractAddress": "0xCfF9899Aa0ffBEBf6f3CdE0A6dEb8a3B644Ff9e8",
      "logs": [
        {
          "address": "0x0000000000000000000000000000000000001010",
          "topics": [
            "0x4dfe1bbbcf077ddc3e01291eea2d5c70c2b422b415d95645b9adcfd678cb1d63",
            "0x0000000000000000000000000000000000000000000000000000000000001010",
            "0x000000000000000000000000439356ad40d2f2961c99ffed4453f482aec453af",
            "0x000000000000000000000000c275dc8be39f50d12f66b6a63629c39da5bae5bd"
          ],
          "data": "0x00000000000000000000000000000000000000000000000000014a374b71c0ef0000000000000000000000000000000000000000000000034b36629a07e4a27a00000000000000000000000000000000000000000000133021ff8690e397f61d0000000000000000000000000000000000000000000000034b351862bc72e18b0000000000000000000000000000000000000000000013302200d0c82f09b70c",
          "blockHash": "0x6236718c668c8dcc4580bd4cee6b96ab29262acfb40fa8fce6a6d186ee941264",
          "blockNumber": "0x2731343",
          "transactionHash": "0x4e345379ec978a749b0fb42414f77787af51cdb2f2df006577f09053b5b2a96c",
          "transactionIndex": "0x6",
          "logIndex": "0x21",
          "removed": false
        }
      ],
      "status": "0x1",
      "logsBloom": "0x00000800000000000000000000000000000000000000000000000000000000000000000000000000000000000000000000008000002000000000000000000000000000000080000000000000000000800000000000000000040100000000000000000000000000000000000000000000000000000000000080000000000000000000000000000000000000000000000000000000000000000000000000000000200000000000000000000002000000000000000000000000000040000000004000000000000000000001000000000000000000000000000000100000000000000000000000000000000000000000000000000000000000000000000000100000",
      "type": "0x2",
      "effectiveGasPrice": "0x749037ec"
    },
    {
      "transactionHash": "0xdec26b9aee8780af43d9ec8514efaeb17208163be31bdd456172839979962016",
      "transactionIndex": "0x7",
      "blockHash": "0x6236718c668c8dcc4580bd4cee6b96ab29262acfb40fa8fce6a6d186ee941264",
      "blockNumber": "0x2731343",
      "from": "0x439356Ad40D2f2961c99FFED4453f482AEC453Af",
      "to": "0xCfF9899Aa0ffBEBf6f3CdE0A6dEb8a3B644Ff9e8",
      "cumulativeGasUsed": "0x168fd3",
      "gasUsed": "0x2dc30",
      "contractAddress": null,
      "logs": [
        {
          "address": "0x0000000000000000000000000000000000001010",
          "topics": [
            "0x4dfe1bbbcf077ddc3e01291eea2d5c70c2b422b415d95645b9adcfd678cb1d63",
            "0x0000000000000000000000000000000000000000000000000000000000001010",
            "0x000000000000000000000000439356ad40d2f2961c99ffed4453f482aec453af",
            "0x000000000000000000000000c275dc8be39f50d12f66b6a63629c39da5bae5bd"
          ],
          "data": "0x00000000000000000000000000000000000000000000000000014d623ac665700000000000000000000000000000000000000000000000034b351862bc4863160000000000000000000000000000000000000000000013302200d0c82f09b70c0000000000000000000000000000000000000000000000034b33cb008181fda600000000000000000000000000000000000000000000133022021e2a69d01c7c",
          "blockHash": "0x6236718c668c8dcc4580bd4cee6b96ab29262acfb40fa8fce6a6d186ee941264",
          "blockNumber": "0x2731343",
          "transactionHash": "0xdec26b9aee8780af43d9ec8514efaeb17208163be31bdd456172839979962016",
          "transactionIndex": "0x7",
          "logIndex": "0x22",
          "removed": false
        }
      ],
      "status": "0x1",
      "logsBloom": "0x00000800000000000000000000000000000000000000000000000000000000000000000000000000000000000000000000008000002000000000000000000000000000000080000000000000000000800000000000000000040100000000000000000000000000000000000000000000000000000000000080000000000000000000000000000000000000000000000000000000000000000000000000000000200000000000000000000002000000000000000000000000000040000000004000000000000000000001000000000000000000000000000000100000000000000000000000000000000000000000000000000000000000000000000000100000",
      "type": "0x2",
      "effectiveGasPrice": "0x749037ec"
    }
  ],
  "libraries": [],
  "pending": [],
  "returns": {},
  "timestamp": 1697048758,
  "chain": 80001,
  "multi": false,
  "commit": "7bc29e7"
}