{
  "transactions": [
    {
      "hash": "0xae0a3858b264106f825eb05265de8b5988cc5ad623ddda1bf08a117f48ce0d34",
      "transactionType": "CREATE",
      "contractName": "Create2",
      "contractAddress": "0x6Fdb1a9fC9C2D00772974ce6e504f6796a908299",
      "function": null,
      "arguments": null,
      "transaction": {
        "type": "0x02",
        "from": "0x439356ad40d2f2961c99ffed4453f482aec453af",
        "gas": "0x3aecc",
        "value": "0x0",
        "data": "0x608060405234801561001057600080fd5b50610265806100206000396000f3fe6080604052600436106100295760003560e01c8063481286e61461002e57806366cfa0571461006a575b600080fd5b34801561003a57600080fd5b5061004e610049366004610133565b61007d565b6040516001600160a01b03909116815260200160405180910390f35b61004e61007836600461016b565b6100a8565b604080519081018290526020810183905230808252600091600b0160ff815360559020949350505050565b6000833410156100d85760405163392efb2b60e21b81523460048201526024810185905260440160405180910390fd5b81516000036100fa57604051631328927760e21b815260040160405180910390fd5b8282516020840186f590506001600160a01b03811661012c57604051633a0ba96160e11b815260040160405180910390fd5b9392505050565b6000806040838503121561014657600080fd5b50508035926020909101359150565b634e487b7160e01b600052604160045260246000fd5b60008060006060848603121561018057600080fd5b8335925060208401359150604084013567ffffffffffffffff808211156101a657600080fd5b818601915086601f8301126101ba57600080fd5b8135818111156101cc576101cc610155565b604051601f8201601f19908116603f011681019083821181831017156101f4576101f4610155565b8160405282815289602084870101111561020d57600080fd5b826020860160208301376000602084830101528095505050505050925092509256fea26469706673582212201ff959459b89756a6c78590a6dfd8b3bd2f3527669a3ed636352c12affb3392164736f6c63430008140033",
        "nonce": "0xd8",
        "accessList": []
      },
      "additionalContracts": [],
      "isFixedGasLimit": false
    },
    {
      "hash": "0xf4460d5613a41ea20ca503d2cfd5a9286eec133802ed5ec773096a7a46b98899",
      "transactionType": "CALL",
      "contractName": "Create2",
      "contractAddress": "0x6Fdb1a9fC9C2D00772974ce6e504f6796a908299",
      "function": "deploy(uint256,bytes32,bytes):(address)",
      "arguments": [
        "0",
        "0x3132333435000000000000000000000000000000000000000000000000000000",
        "0x608060405234801561001057600080fd5b50610265806100206000396000f3fe6080604052600436106100295760003560e01c8063481286e61461002e57806366cfa0571461006a575b600080fd5b34801561003a57600080fd5b5061004e610049366004610133565b61007d565b6040516001600160a01b03909116815260200160405180910390f35b61004e61007836600461016b565b6100a8565b604080519081018290526020810183905230808252600091600b0160ff815360559020949350505050565b6000833410156100d85760405163392efb2b60e21b81523460048201526024810185905260440160405180910390fd5b81516000036100fa57604051631328927760e21b815260040160405180910390fd5b8282516020840186f590506001600160a01b03811661012c57604051633a0ba96160e11b815260040160405180910390fd5b9392505050565b6000806040838503121561014657600080fd5b50508035926020909101359150565b634e487b7160e01b600052604160045260246000fd5b60008060006060848603121561018057600080fd5b8335925060208401359150604084013567ffffffffffffffff808211156101a657600080fd5b818601915086601f8301126101ba57600080fd5b8135818111156101cc576101cc610155565b604051601f8201601f19908116603f011681019083821181831017156101f4576101f4610155565b8160405282815289602084870101111561020d57600080fd5b826020860160208301376000602084830101528095505050505050925092509256fea26469706673582212201ff959459b89756a6c78590a6dfd8b3bd2f3527669a3ed636352c12affb3392164736f6c63430008140033"
      ],
      "transaction": {
        "type": "0x02",
        "from": "0x439356ad40d2f2961c99ffed4453f482aec453af",
        "to": "0x6fdb1a9fc9c2d00772974ce6e504f6796a908299",
        "gas": "0x3f355",
        "value": "0x0",
        "data": "0x66cfa0570000000000000000000000000000000000000000000000000000000000000000313233343500000000000000000000000000000000000000000000000000000000000000000000000000000000000000000000000000000000000000000000600000000000000000000000000000000000000000000000000000000000000285608060405234801561001057600080fd5b50610265806100206000396000f3fe6080604052600436106100295760003560e01c8063481286e61461002e57806366cfa0571461006a575b600080fd5b34801561003a57600080fd5b5061004e610049366004610133565b61007d565b6040516001600160a01b03909116815260200160405180910390f35b61004e61007836600461016b565b6100a8565b604080519081018290526020810183905230808252600091600b0160ff815360559020949350505050565b6000833410156100d85760405163392efb2b60e21b81523460048201526024810185905260440160405180910390fd5b81516000036100fa57604051631328927760e21b815260040160405180910390fd5b8282516020840186f590506001600160a01b03811661012c57604051633a0ba96160e11b815260040160405180910390fd5b9392505050565b6000806040838503121561014657600080fd5b50508035926020909101359150565b634e487b7160e01b600052604160045260246000fd5b60008060006060848603121561018057600080fd5b8335925060208401359150604084013567ffffffffffffffff808211156101a657600080fd5b818601915086601f8301126101ba57600080fd5b8135818111156101cc576101cc610155565b604051601f8201601f19908116603f011681019083821181831017156101f4576101f4610155565b8160405282815289602084870101111561020d57600080fd5b826020860160208301376000602084830101528095505050505050925092509256fea26469706673582212201ff959459b89756a6c78590a6dfd8b3bd2f3527669a3ed636352c12affb3392164736f6c63430008140033000000000000000000000000000000000000000000000000000000",
        "nonce": "0xd9",
        "accessList": []
      },
      "additionalContracts": [
        {
          "transactionType": "CREATE2",
          "address": "0xF5c129e15fd94DeC1327Dd187f6D8419bb2Cf9c8",
          "initCode": "0x608060405234801561001057600080fd5b50610265806100206000396000f3fe6080604052600436106100295760003560e01c8063481286e61461002e57806366cfa0571461006a575b600080fd5b34801561003a57600080fd5b5061004e610049366004610133565b61007d565b6040516001600160a01b03909116815260200160405180910390f35b61004e61007836600461016b565b6100a8565b604080519081018290526020810183905230808252600091600b0160ff815360559020949350505050565b6000833410156100d85760405163392efb2b60e21b81523460048201526024810185905260440160405180910390fd5b81516000036100fa57604051631328927760e21b815260040160405180910390fd5b8282516020840186f590506001600160a01b03811661012c57604051633a0ba96160e11b815260040160405180910390fd5b9392505050565b6000806040838503121561014657600080fd5b50508035926020909101359150565b634e487b7160e01b600052604160045260246000fd5b60008060006060848603121561018057600080fd5b8335925060208401359150604084013567ffffffffffffffff808211156101a657600080fd5b818601915086601f8301126101ba57600080fd5b8135818111156101cc576101cc610155565b604051601f8201601f19908116603f011681019083821181831017156101f4576101f4610155565b8160405282815289602084870101111561020d57600080fd5b826020860160208301376000602084830101528095505050505050925092509256fea26469706673582212201ff959459b89756a6c78590a6dfd8b3bd2f3527669a3ed636352c12affb3392164736f6c63430008140033"
        }
      ],
      "isFixedGasLimit": false
    }
  ],
  "receipts": [
    {
      "transactionHash": "0xae0a3858b264106f825eb05265de8b5988cc5ad623ddda1bf08a117f48ce0d34",
      "transactionIndex": "0xa",
      "blockHash": "0x38b0eea5907e21682b46e88216c1f946555934f11b14486d08d4875a8246ea1d",
      "blockNumber": "0x2731390",
      "from": "0x439356Ad40D2f2961c99FFED4453f482AEC453Af",
      "to": null,
      "cumulativeGasUsed": "0x42a305",
      "gasUsed": "0x2d53b",
      "contractAddress": "0x6Fdb1a9fC9C2D00772974ce6e504f6796a908299",
      "logs": [
        {
          "address": "0x0000000000000000000000000000000000001010",
          "topics": [
            "0x4dfe1bbbcf077ddc3e01291eea2d5c70c2b422b415d95645b9adcfd678cb1d63",
            "0x0000000000000000000000000000000000000000000000000000000000001010",
            "0x000000000000000000000000439356ad40d2f2961c99ffed4453f482aec453af",
            "0x0000000000000000000000005082f249cdb2f2c1ee035e4f423c46ea2dab3ab1"
          ],
          "data": "0x0000000000000000000000000000000000000000000000000002549fc4e49d970000000000000000000000000000000000000000000000034b33cb00815716d6000000000000000000000000000000000000000000000292f42b8004762c542b0000000000000000000000000000000000000000000000034b317660bc72793f000000000000000000000000000000000000000000000292f42dd4a43b10f1c2",
          "blockHash": "0x38b0eea5907e21682b46e88216c1f946555934f11b14486d08d4875a8246ea1d",
          "blockNumber": "0x2731390",
          "transactionHash": "0xae0a3858b264106f825eb05265de8b5988cc5ad623ddda1bf08a117f48ce0d34",
          "transactionIndex": "0xa",
          "logIndex": "0x76",
          "removed": false
        }
      ],
      "status": "0x1",
      "logsBloom": "0x00000800000000000000000000000000000000000000000000000000020000000000000002000000000000000000000000008000000000000000000000000000000000000080000000000000000000800000000000000000000100000000000000000000000000000000000000000000000000000000000080000000000000000000000000000000000000000000000000000000000000000000000000000000200000000000000000000002000000000000000000000000000000000000004000000000000000000001000000000000000000000000000000100000000000000000000000000080000000000000000000000000000000000000000000100000",
      "type": "0x2",
      "effectiveGasPrice": "0xd29a6364"
    },
    {
      "transactionHash": "0xf4460d5613a41ea20ca503d2cfd5a9286eec133802ed5ec773096a7a46b98899",
      "transactionIndex": "0xb",
      "blockHash": "0x38b0eea5907e21682b46e88216c1f946555934f11b14486d08d4875a8246ea1d",
      "blockNumber": "0x2731390",
      "from": "0x439356Ad40D2f2961c99FFED4453f482AEC453Af",
      "to": "0x6Fdb1a9fC9C2D00772974ce6e504f6796a908299",
      "cumulativeGasUsed": "0x457f35",
      "gasUsed": "0x2dc30",
      "contractAddress": null,
      "logs": [
        {
          "address": "0x0000000000000000000000000000000000001010",
          "topics": [
            "0x4dfe1bbbcf077ddc3e01291eea2d5c70c2b422b415d95645b9adcfd678cb1d63",
            "0x0000000000000000000000000000000000000000000000000000000000001010",
            "0x000000000000000000000000439356ad40d2f2961c99ffed4453f482aec453af",
            "0x0000000000000000000000005082f249cdb2f2c1ee035e4f423c46ea2dab3ab1"
          ],
          "data": "0x00000000000000000000000000000000000000000000000000025a58f0f9abf00000000000000000000000000000000000000000000000034b317660bc47faca000000000000000000000000000000000000000000000292f42dd4a43b10f1c20000000000000000000000000000000000000000000000034b2f1c07cb4e4eda000000000000000000000000000000000000000000000292f4302efd2c0a9db2",
          "blockHash": "0x38b0eea5907e21682b46e88216c1f946555934f11b14486d08d4875a8246ea1d",
          "blockNumber": "0x2731390",
          "transactionHash": "0xf4460d5613a41ea20ca503d2cfd5a9286eec133802ed5ec773096a7a46b98899",
          "transactionIndex": "0xb",
          "logIndex": "0x77",
          "removed": false
        }
      ],
      "status": "0x1",
      "logsBloom": "0x00000800000000000000000000000000000000000000000000000000020000000000000002000000000000000000000000008000000000000000000000000000000000000080000000000000000000800000000000000000000100000000000000000000000000000000000000000000000000000000000080000000000000000000000000000000000000000000000000000000000000000000000000000000200000000000000000000002000000000000000000000000000000000000004000000000000000000001000000000000000000000000000000100000000000000000000000000080000000000000000000000000000000000000000000100000",
      "type": "0x2",
      "effectiveGasPrice": "0xd29a6364"
    }
  ],
  "libraries": [],
  "pending": [],
  "returns": {},
  "timestamp": 1697048956,
  "chain": 80001,
  "multi": false,
  "commit": "7bc29e7"
}