{
  "transactions": [
    {
      "hash": "0x9c39e9f6dea0b8f4d66a812abdaa0f3b8023b2a54427107855bba8e6815b95e5",
      "transactionType": "CREATE",
      "contractName": "Create2",
      "contractAddress": "0x64EfA2021128Ea5A1Bea38B5DeE09cB1c2fF957c",
      "function": null,
      "arguments": null,
      "transaction": {
        "type": "0x02",
        "from": "0xa3c24bfaeb684f55282333e5e540071b95e14f6d",
        "gas": "0x3aecc",
        "value": "0x0",
        "data": "0x608060405234801561001057600080fd5b50610265806100206000396000f3fe6080604052600436106100295760003560e01c8063481286e61461002e57806366cfa0571461006a575b600080fd5b34801561003a57600080fd5b5061004e610049366004610133565b61007d565b6040516001600160a01b03909116815260200160405180910390f35b61004e61007836600461016b565b6100a8565b604080519081018290526020810183905230808252600091600b0160ff815360559020949350505050565b6000833410156100d85760405163392efb2b60e21b81523460048201526024810185905260440160405180910390fd5b81516000036100fa57604051631328927760e21b815260040160405180910390fd5b8282516020840186f590506001600160a01b03811661012c57604051633a0ba96160e11b815260040160405180910390fd5b9392505050565b6000806040838503121561014657600080fd5b50508035926020909101359150565b634e487b7160e01b600052604160045260246000fd5b60008060006060848603121561018057600080fd5b8335925060208401359150604084013567ffffffffffffffff808211156101a657600080fd5b818601915086601f8301126101ba57600080fd5b8135818111156101cc576101cc610155565b604051601f8201601f19908116603f011681019083821181831017156101f4576101f4610155565b8160405282815289602084870101111561020d57600080fd5b826020860160208301376000602084830101528095505050505050925092509256fea26469706673582212201ff959459b89756a6c78590a6dfd8b3bd2f3527669a3ed636352c12affb3392164736f6c63430008140033",
        "nonce": "0x0",
        "accessList": []
      },
      "additionalContracts": [],
      "isFixedGasLimit": false
    },
    {
      "hash": "0x87924096d612524b4db7880d4930facabcb9b145446a0da41ae2376b76ef83d1",
      "transactionType": "CALL",
      "contractName": "Create2",
      "contractAddress": "0x64EfA2021128Ea5A1Bea38B5DeE09cB1c2fF957c",
      "function": "deploy(uint256,bytes32,bytes):(address)",
      "arguments": [
        "0",
        "0x3132333435000000000000000000000000000000000000000000000000000000",
        "0x608060405234801561001057600080fd5b50610265806100206000396000f3fe6080604052600436106100295760003560e01c8063481286e61461002e57806366cfa0571461006a575b600080fd5b34801561003a57600080fd5b5061004e610049366004610133565b61007d565b6040516001600160a01b03909116815260200160405180910390f35b61004e61007836600461016b565b6100a8565b604080519081018290526020810183905230808252600091600b0160ff815360559020949350505050565b6000833410156100d85760405163392efb2b60e21b81523460048201526024810185905260440160405180910390fd5b81516000036100fa57604051631328927760e21b815260040160405180910390fd5b8282516020840186f590506001600160a01b03811661012c57604051633a0ba96160e11b815260040160405180910390fd5b9392505050565b6000806040838503121561014657600080fd5b50508035926020909101359150565b634e487b7160e01b600052604160045260246000fd5b60008060006060848603121561018057600080fd5b8335925060208401359150604084013567ffffffffffffffff808211156101a657600080fd5b818601915086601f8301126101ba57600080fd5b8135818111156101cc576101cc610155565b604051601f8201601f19908116603f011681019083821181831017156101f4576101f4610155565b8160405282815289602084870101111561020d57600080fd5b826020860160208301376000602084830101528095505050505050925092509256fea26469706673582212201ff959459b89756a6c78590a6dfd8b3bd2f3527669a3ed636352c12affb3392164736f6c63430008140033"
      ],
      "transaction": {
        "type": "0x02",
        "from": "0xa3c24bfaeb684f55282333e5e540071b95e14f6d",
        "to": "0x64efa2021128ea5a1bea38b5dee09cb1c2ff957c",
        "gas": "0x3f355",
        "value": "0x0",
        "data": "0x66cfa0570000000000000000000000000000000000000000000000000000000000000000313233343500000000000000000000000000000000000000000000000000000000000000000000000000000000000000000000000000000000000000000000600000000000000000000000000000000000000000000000000000000000000285608060405234801561001057600080fd5b50610265806100206000396000f3fe6080604052600436106100295760003560e01c8063481286e61461002e57806366cfa0571461006a575b600080fd5b34801561003a57600080fd5b5061004e610049366004610133565b61007d565b6040516001600160a01b03909116815260200160405180910390f35b61004e61007836600461016b565b6100a8565b604080519081018290526020810183905230808252600091600b0160ff815360559020949350505050565b6000833410156100d85760405163392efb2b60e21b81523460048201526024810185905260440160405180910390fd5b81516000036100fa57604051631328927760e21b815260040160405180910390fd5b8282516020840186f590506001600160a01b03811661012c57604051633a0ba96160e11b815260040160405180910390fd5b9392505050565b6000806040838503121561014657600080fd5b50508035926020909101359150565b634e487b7160e01b600052604160045260246000fd5b60008060006060848603121561018057600080fd5b8335925060208401359150604084013567ffffffffffffffff808211156101a657600080fd5b818601915086601f8301126101ba57600080fd5b8135818111156101cc576101cc610155565b604051601f8201601f19908116603f011681019083821181831017156101f4576101f4610155565b8160405282815289602084870101111561020d57600080fd5b826020860160208301376000602084830101528095505050505050925092509256fea26469706673582212201ff959459b89756a6c78590a6dfd8b3bd2f3527669a3ed636352c12affb3392164736f6c63430008140033000000000000000000000000000000000000000000000000000000",
        "nonce": "0x1",
        "accessList": []
      },
      "additionalContracts": [
        {
          "transactionType": "CREATE2",
          "address": "0xE2d56653Bf54230f30349BC125437D7A081Efb97",
          "initCode": "0x608060405234801561001057600080fd5b50610265806100206000396000f3fe6080604052600436106100295760003560e01c8063481286e61461002e57806366cfa0571461006a575b600080fd5b34801561003a57600080fd5b5061004e610049366004610133565b61007d565b6040516001600160a01b03909116815260200160405180910390f35b61004e61007836600461016b565b6100a8565b604080519081018290526020810183905230808252600091600b0160ff815360559020949350505050565b6000833410156100d85760405163392efb2b60e21b81523460048201526024810185905260440160405180910390fd5b81516000036100fa57604051631328927760e21b815260040160405180910390fd5b8282516020840186f590506001600160a01b03811661012c57604051633a0ba96160e11b815260040160405180910390fd5b9392505050565b6000806040838503121561014657600080fd5b50508035926020909101359150565b634e487b7160e01b600052604160045260246000fd5b60008060006060848603121561018057600080fd5b8335925060208401359150604084013567ffffffffffffffff808211156101a657600080fd5b818601915086601f8301126101ba57600080fd5b8135818111156101cc576101cc610155565b604051601f8201601f19908116603f011681019083821181831017156101f4576101f4610155565b8160405282815289602084870101111561020d57600080fd5b826020860160208301376000602084830101528095505050505050925092509256fea26469706673582212201ff959459b89756a6c78590a6dfd8b3bd2f3527669a3ed636352c12affb3392164736f6c63430008140033"
        }
      ],
      "isFixedGasLimit": false
    }
  ],
  "receipts": [
    {
      "transactionHash": "0x9c39e9f6dea0b8f4d66a812abdaa0f3b8023b2a54427107855bba8e6815b95e5",
      "transactionIndex": "0x6",
      "blockHash": "0x413438c553b1ce5965d75aeb7b5b6175b0a3d4c68a65473d73cef238e0b86828",
      "blockNumber": "0x2731514",
      "from": "0xa3C24BfAeB684f55282333e5e540071b95e14F6D",
      "to": null,
      "cumulativeGasUsed": "0xebce9",
      "gasUsed": "0x2d53b",
      "contractAddress": "0x64EfA2021128Ea5A1Bea38B5DeE09cB1c2fF957c",
      "logs": [
        {
          "address": "0x0000000000000000000000000000000000001010",
          "topics": [
            "0x4dfe1bbbcf077ddc3e01291eea2d5c70c2b422b415d95645b9adcfd678cb1d63",
            "0x0000000000000000000000000000000000000000000000000000000000001010",
            "0x000000000000000000000000a3c24bfaeb684f55282333e5e540071b95e14f6d",
            "0x000000000000000000000000e7f13f6bc1e7f5ca4a6c9a255124ce22c46f8ef0"
          ],
          "data": "0x00000000000000000000000000000000000000000000000000073607dd7a79a70000000000000000000000000000000000000000000000008ac7230489e8000000000000000000000000000000000000000000000000008ff66406156c7bff090000000000000000000000000000000000000000000000008abfecfcac6d865900000000000000000000000000000000000000000000008ff66b3c1d49f678b0",
          "blockHash": "0x413438c553b1ce5965d75aeb7b5b6175b0a3d4c68a65473d73cef238e0b86828",
          "blockNumber": "0x2731514",
          "transactionHash": "0x9c39e9f6dea0b8f4d66a812abdaa0f3b8023b2a54427107855bba8e6815b95e5",
          "transactionIndex": "0x6",
          "logIndex": "0x10",
          "removed": false
        }
      ],
      "status": "0x1",
      "logsBloom": "0x00000000000000000000000000000000000000000000000000000000000000000000000000000000000000000000000000008000000080000000000000000000000000000000000000000000000000800000000000000000000100000000000000000000000000400000002000000000000000000000000080000000000000000000000000000000000000000000000000000000000000000000000000001000200000000000000000000000000000000000000000000000000000000000004000000000000000000001000000000000000000000000000000100000000100000008000000000000000000000000000000000000000000000000000000100000",
      "type": "0x2",
      "effectiveGasPrice": "0x28ba1f694"
    },
    {
      "transactionHash": "0x87924096d612524b4db7880d4930facabcb9b145446a0da41ae2376b76ef83d1",
      "transactionIndex": "0x7",
      "blockHash": "0x413438c553b1ce5965d75aeb7b5b6175b0a3d4c68a65473d73cef238e0b86828",
      "blockNumber": "0x2731514",
      "from": "0xa3C24BfAeB684f55282333e5e540071b95e14F6D",
      "to": "0x64EfA2021128Ea5A1Bea38B5DeE09cB1c2fF957c",
      "cumulativeGasUsed": "0x119919",
      "gasUsed": "0x2dc30",
      "contractAddress": null,
      "logs": [
        {
          "address": "0x0000000000000000000000000000000000001010",
          "topics": [
            "0x4dfe1bbbcf077ddc3e01291eea2d5c70c2b422b415d95645b9adcfd678cb1d63",
            "0x0000000000000000000000000000000000000000000000000000000000001010",
            "0x000000000000000000000000a3c24bfaeb684f55282333e5e540071b95e14f6d",
            "0x000000000000000000000000e7f13f6bc1e7f5ca4a6c9a255124ce22c46f8ef0"
          ],
          "data": "0x000000000000000000000000000000000000000000000000000747bd4b4284f00000000000000000000000000000000000000000000000008abfecfcac4307e400000000000000000000000000000000000000000000008ff66b3c1d49f678b00000000000000000000000000000000000000000000000008ab8a53f610082f400000000000000000000000000000000000000000000008ff67283da9538fda0",
          "blockHash": "0x413438c553b1ce5965d75aeb7b5b6175b0a3d4c68a65473d73cef238e0b86828",
          "blockNumber": "0x2731514",
          "transactionHash": "0x87924096d612524b4db7880d4930facabcb9b145446a0da41ae2376b76ef83d1",
          "transactionIndex": "0x7",
          "logIndex": "0x11",
          "removed": false
        }
      ],
      "status": "0x1",
      "logsBloom": "0x00000000000000000000000000000000000000000000000000000000000000000000000000000000000000000000000000008000000080000000000000000000000000000000000000000000000000800000000000000000000100000000000000000000000000400000002000000000000000000000000080000000000000000000000000000000000000000000000000000000000000000000000000001000200000000000000000000000000000000000000000000000000000000000004000000000000000000001000000000000000000000000000000100000000100000008000000000000000000000000000000000000000000000000000000100000",
      "type": "0x2",
      "effectiveGasPrice": "0x28ba1f694"
    }
  ],
  "libraries": [],
  "pending": [],
  "returns": {},
  "timestamp": 1697049919,
  "chain": 80001,
  "multi": false,
  "commit": "7bc29e7"
}