{
  "transactions": [
    {
      "hash": "0x5462bd2bc484738f0ad9d89a0a82fed8c226e96d107942cff5e8aaa0e7fade11",
      "transactionType": "CREATE",
      "contractName": "Create2",
      "contractAddress": "0xA4077263922b735234E9c97e52cBCadcd58af5D5",
      "function": null,
      "arguments": null,
      "transaction": {
        "type": "0x02",
        "from": "0x439356ad40d2f2961c99ffed4453f482aec453af",
        "gas": "0x3aecc",
        "value": "0x0",
        "data": "0x608060405234801561001057600080fd5b50610265806100206000396000f3fe6080604052600436106100295760003560e01c8063481286e61461002e57806366cfa0571461006a575b600080fd5b34801561003a57600080fd5b5061004e610049366004610133565b61007d565b6040516001600160a01b03909116815260200160405180910390f35b61004e61007836600461016b565b6100a8565b604080519081018290526020810183905230808252600091600b0160ff815360559020949350505050565b6000833410156100d85760405163392efb2b60e21b81523460048201526024810185905260440160405180910390fd5b81516000036100fa57604051631328927760e21b815260040160405180910390fd5b8282516020840186f590506001600160a01b03811661012c57604051633a0ba96160e11b815260040160405180910390fd5b9392505050565b6000806040838503121561014657600080fd5b50508035926020909101359150565b634e487b7160e01b600052604160045260246000fd5b60008060006060848603121561018057600080fd5b8335925060208401359150604084013567ffffffffffffffff808211156101a657600080fd5b818601915086601f8301126101ba57600080fd5b8135818111156101cc576101cc610155565b604051601f8201601f19908116603f011681019083821181831017156101f4576101f4610155565b8160405282815289602084870101111561020d57600080fd5b826020860160208301376000602084830101528095505050505050925092509256fea26469706673582212201ff959459b89756a6c78590a6dfd8b3bd2f3527669a3ed636352c12affb3392164736f6c63430008140033",
        "nonce": "0xf",
        "accessList": []
      },
      "additionalContracts": [],
      "isFixedGasLimit": false
    },
    {
      "hash": "0x0a01b97cca827739f977c8dd46f513d0842e705bcf93770efda9a304d2f246c2",
      "transactionType": "CALL",
      "contractName": "Create2",
      "contractAddress": "0xA4077263922b735234E9c97e52cBCadcd58af5D5",
      "function": "deploy(uint256,bytes32,bytes):(address)",
      "arguments": [
        "0",
        "0x3132333435000000000000000000000000000000000000000000000000000000",
        "0x608060405234801561001057600080fd5b50610265806100206000396000f3fe6080604052600436106100295760003560e01c8063481286e61461002e57806366cfa0571461006a575b600080fd5b34801561003a57600080fd5b5061004e610049366004610133565b61007d565b6040516001600160a01b03909116815260200160405180910390f35b61004e61007836600461016b565b6100a8565b604080519081018290526020810183905230808252600091600b0160ff815360559020949350505050565b6000833410156100d85760405163392efb2b60e21b81523460048201526024810185905260440160405180910390fd5b81516000036100fa57604051631328927760e21b815260040160405180910390fd5b8282516020840186f590506001600160a01b03811661012c57604051633a0ba96160e11b815260040160405180910390fd5b9392505050565b6000806040838503121561014657600080fd5b50508035926020909101359150565b634e487b7160e01b600052604160045260246000fd5b60008060006060848603121561018057600080fd5b8335925060208401359150604084013567ffffffffffffffff808211156101a657600080fd5b818601915086601f8301126101ba57600080fd5b8135818111156101cc576101cc610155565b604051601f8201601f19908116603f011681019083821181831017156101f4576101f4610155565b8160405282815289602084870101111561020d57600080fd5b826020860160208301376000602084830101528095505050505050925092509256fea26469706673582212201ff959459b89756a6c78590a6dfd8b3bd2f3527669a3ed636352c12affb3392164736f6c63430008140033"
      ],
      "transaction": {
        "type": "0x02",
        "from": "0x439356ad40d2f2961c99ffed4453f482aec453af",
        "to": "0xa4077263922b735234e9c97e52cbcadcd58af5d5",
        "gas": "0x3f355",
        "value": "0x0",
        "data": "0x66cfa0570000000000000000000000000000000000000000000000000000000000000000313233343500000000000000000000000000000000000000000000000000000000000000000000000000000000000000000000000000000000000000000000600000000000000000000000000000000000000000000000000000000000000285608060405234801561001057600080fd5b50610265806100206000396000f3fe6080604052600436106100295760003560e01c8063481286e61461002e57806366cfa0571461006a575b600080fd5b34801561003a57600080fd5b5061004e610049366004610133565b61007d565b6040516001600160a01b03909116815260200160405180910390f35b61004e61007836600461016b565b6100a8565b604080519081018290526020810183905230808252600091600b0160ff815360559020949350505050565b6000833410156100d85760405163392efb2b60e21b81523460048201526024810185905260440160405180910390fd5b81516000036100fa57604051631328927760e21b815260040160405180910390fd5b8282516020840186f590506001600160a01b03811661012c57604051633a0ba96160e11b815260040160405180910390fd5b9392505050565b6000806040838503121561014657600080fd5b50508035926020909101359150565b634e487b7160e01b600052604160045260246000fd5b60008060006060848603121561018057600080fd5b8335925060208401359150604084013567ffffffffffffffff808211156101a657600080fd5b818601915086601f8301126101ba57600080fd5b8135818111156101cc576101cc610155565b604051601f8201601f19908116603f011681019083821181831017156101f4576101f4610155565b8160405282815289602084870101111561020d57600080fd5b826020860160208301376000602084830101528095505050505050925092509256fea26469706673582212201ff959459b89756a6c78590a6dfd8b3bd2f3527669a3ed636352c12affb3392164736f6c63430008140033000000000000000000000000000000000000000000000000000000",
        "nonce": "0x10",
        "accessList": []
      },
      "additionalContracts": [
        {
          "transactionType": "CREATE2",
          "address": "0x38f38b1f0bEb357F47f1e9D0acA90775D7e3dFF8",
          "initCode": "0x608060405234801561001057600080fd5b50610265806100206000396000f3fe6080604052600436106100295760003560e01c8063481286e61461002e57806366cfa0571461006a575b600080fd5b34801561003a57600080fd5b5061004e610049366004610133565b61007d565b6040516001600160a01b03909116815260200160405180910390f35b61004e61007836600461016b565b6100a8565b604080519081018290526020810183905230808252600091600b0160ff815360559020949350505050565b6000833410156100d85760405163392efb2b60e21b81523460048201526024810185905260440160405180910390fd5b81516000036100fa57604051631328927760e21b815260040160405180910390fd5b8282516020840186f590506001600160a01b03811661012c57604051633a0ba96160e11b815260040160405180910390fd5b9392505050565b6000806040838503121561014657600080fd5b50508035926020909101359150565b634e487b7160e01b600052604160045260246000fd5b60008060006060848603121561018057600080fd5b8335925060208401359150604084013567ffffffffffffffff808211156101a657600080fd5b818601915086601f8301126101ba57600080fd5b8135818111156101cc576101cc610155565b604051601f8201601f19908116603f011681019083821181831017156101f4576101f4610155565b8160405282815289602084870101111561020d57600080fd5b826020860160208301376000602084830101528095505050505050925092509256fea26469706673582212201ff959459b89756a6c78590a6dfd8b3bd2f3527669a3ed636352c12affb3392164736f6c63430008140033"
        }
      ],
      "isFixedGasLimit": false
    }
  ],
  "receipts": [
    {
      "transactionHash": "0x5462bd2bc484738f0ad9d89a0a82fed8c226e96d107942cff5e8aaa0e7fade11",
      "transactionIndex": "0x1",
      "blockHash": "0x0a1e5a54450cc9c88203c29a12483f8356d41ffd435aef69f0308586c183ce26",
      "blockNumber": "0x443a43",
      "from": "0x439356Ad40D2f2961c99FFED4453f482AEC453Af",
      "to": null,
      "cumulativeGasUsed": "0xc33fe",
      "gasUsed": "0x2d565",
      "contractAddress": "0xA4077263922b735234E9c97e52cBCadcd58af5D5",
      "logs": [],
      "status": "0x1",
      "logsBloom": "0x00000000000000000000000000000000000000000000000000000000000000000000000000000000000000000000000000000000000000000000000000000000000000000000000000000000000000000000000000000000000000000000000000000000000000000000000000000000000000000000000000000000000000000000000000000000000000000000000000000000000000000000000000000000000000000000000000000000000000000000000000000000000000000000000000000000000000000000000000000000000000000000000000000000000000000000000000000000000000000000000000000000000000000000000000000000",
      "type": "0x2",
      "effectiveGasPrice": "0xb2d05f89"
    },
    {
      "transactionHash": "0x0a01b97cca827739f977c8dd46f513d0842e705bcf93770efda9a304d2f246c2",
      "transactionIndex": "0x2",
      "blockHash": "0x0a1e5a54450cc9c88203c29a12483f8356d41ffd435aef69f0308586c183ce26",
      "blockNumber": "0x443a43",
      "from": "0x439356Ad40D2f2961c99FFED4453f482AEC453Af",
      "to": "0xA4077263922b735234E9c97e52cBCadcd58af5D5",
      "cumulativeGasUsed": "0xf1058",
      "gasUsed": "0x2dc5a",
      "contractAddress": null,
      "logs": [],
      "status": "0x1",
      "logsBloom": "0x00000000000000000000000000000000000000000000000000000000000000000000000000000000000000000000000000000000000000000000000000000000000000000000000000000000000000000000000000000000000000000000000000000000000000000000000000000000000000000000000000000000000000000000000000000000000000000000000000000000000000000000000000000000000000000000000000000000000000000000000000000000000000000000000000000000000000000000000000000000000000000000000000000000000000000000000000000000000000000000000000000000000000000000000000000000",
      "type": "0x2",
      "effectiveGasPrice": "0xb2d05f89"
    }
  ],
  "libraries": [],
  "pending": [],
  "returns": {},
  "timestamp": 1697048257,
  "chain": 11155111,
  "multi": false,
  "commit": "7bc29e7"
}